{
  "contractName": "Sale",
  "abi": [
    {
      "inputs": [
        {
          "internalType": "address payable",
          "name": "_vendor",
          "type": "address"
        },
        {
          "internalType": "address payable",
          "name": "_owner",
          "type": "address"
        },
        {
          "internalType": "uint256",
          "name": "_adPrice",
          "type": "uint256"
        },
        {
          "internalType": "uint256",
          "name": "_salePrice",
          "type": "uint256"
        }
      ],
      "stateMutability": "payable",
      "type": "constructor"
    },
    {
      "anonymous": false,
      "inputs": [
        {
          "indexed": false,
          "internalType": "string",
          "name": "_message",
          "type": "string"
        }
      ],
      "name": "AgreementAborted",
      "type": "event"
    },
    {
      "anonymous": false,
      "inputs": [
        {
          "indexed": false,
          "internalType": "string",
          "name": "_message",
          "type": "string"
        }
      ],
      "name": "AgreementBinding",
      "type": "event"
    },
    {
      "anonymous": false,
      "inputs": [
        {
          "indexed": false,
          "internalType": "string",
          "name": "_message",
          "type": "string"
        }
      ],
      "name": "AgreementConcluded",
      "type": "event"
    },
    {
      "anonymous": false,
      "inputs": [
        {
          "indexed": false,
          "internalType": "string",
          "name": "_message",
          "type": "string"
        }
      ],
      "name": "AgreementCreated",
      "type": "event"
    },
    {
      "anonymous": false,
      "inputs": [
        {
          "indexed": false,
          "internalType": "address",
          "name": "_contract",
          "type": "address"
        },
        {
          "indexed": false,
          "internalType": "address",
          "name": "_vendorAddress",
          "type": "address"
        },
        {
          "indexed": false,
          "internalType": "string",
          "name": "_message",
          "type": "string"
        }
      ],
      "name": "ContractCreated",
      "type": "event"
    },
    {
      "anonymous": false,
      "inputs": [
        {
          "indexed": false,
          "internalType": "string",
          "name": "_message",
          "type": "string"
        }
      ],
      "name": "ContractTerminated",
      "type": "event"
    },
    {
      "anonymous": false,
      "inputs": [
        {
          "indexed": false,
          "internalType": "address",
          "name": "_addr",
          "type": "address"
        },
        {
          "indexed": false,
          "internalType": "string",
          "name": "_message",
          "type": "string"
        },
        {
          "indexed": false,
          "internalType": "address",
          "name": "_creator",
          "type": "address"
        }
      ],
      "name": "NewContract",
      "type": "event"
    },
    {
      "anonymous": false,
      "inputs": [
        {
          "indexed": false,
          "internalType": "string",
          "name": "_message",
          "type": "string"
        }
      ],
      "name": "RefundPerformed",
      "type": "event"
    },
    {
      "inputs": [
        {
          "internalType": "address",
          "name": "_addr",
          "type": "address"
        }
      ],
      "name": "cancelOffer",
      "outputs": [],
      "stateMutability": "nonpayable",
      "type": "function"
    },
    {
      "inputs": [
        {
          "internalType": "address payable",
          "name": "_customer",
          "type": "address"
        },
        {
          "internalType": "uint256",
          "name": "_amt",
          "type": "uint256"
        }
      ],
      "name": "acceptOffer",
      "outputs": [],
      "stateMutability": "payable",
      "type": "function"
    },
    {
      "inputs": [
        {
          "internalType": "address",
          "name": "_addr",
          "type": "address"
        }
      ],
      "name": "agreementConcluded",
      "outputs": [],
      "stateMutability": "nonpayable",
      "type": "function"
    },
    {
      "inputs": [
        {
          "internalType": "address",
          "name": "_addr",
          "type": "address"
        }
      ],
      "name": "refund",
      "outputs": [],
      "stateMutability": "nonpayable",
      "type": "function"
    },
    {
      "inputs": [
        {
          "internalType": "address",
          "name": "_addr",
          "type": "address"
        }
      ],
      "name": "getPaid",
      "outputs": [],
      "stateMutability": "nonpayable",
      "type": "function"
    },
    {
      "inputs": [
        {
          "internalType": "address",
          "name": "_addr",
          "type": "address"
        }
      ],
      "name": "terminateAndRefund",
      "outputs": [],
      "stateMutability": "nonpayable",
      "type": "function"
    },
    {
      "inputs": [],
      "name": "getOwner",
      "outputs": [
        {
          "internalType": "address",
          "name": "_owner",
          "type": "address"
        }
      ],
      "stateMutability": "view",
      "type": "function"
    },
    {
      "inputs": [],
      "name": "balance",
      "outputs": [
        {
          "internalType": "uint256",
          "name": "_amt",
          "type": "uint256"
        }
      ],
      "stateMutability": "view",
      "type": "function"
    },
    {
      "inputs": [],
      "name": "salePrice",
      "outputs": [
        {
          "internalType": "uint256",
          "name": "_salePrice",
          "type": "uint256"
        }
      ],
      "stateMutability": "view",
      "type": "function"
    }
  ],
  "bytecode": "0x60806040526040516125033803806125038339818101604052608081101561002657600080fd5b8101908080519060200190929190805190602001909291908051906020019092919080519060200190929190505050813410156100cb576040517f08c379a00000000000000000000000000000000000000000000000000000000081526004018080602001828103825260208152602001807f6e6f7420656e6f7567682066756e647320746f2070617920616420737061636581525060200191505060405180910390fd5b826000806101000a81548173ffffffffffffffffffffffffffffffffffffffff021916908373ffffffffffffffffffffffffffffffffffffffff16021790555083600260006101000a81548173ffffffffffffffffffffffffffffffffffffffff021916908373ffffffffffffffffffffffffffffffffffffffff1602179055508060038190555081600560008673ffffffffffffffffffffffffffffffffffffffff1673ffffffffffffffffffffffffffffffffffffffff168152602001908152602001600020819055506001600460006101000a81548160ff021916908360018111156101b657fe5b02179055507f5a0e8f8f6398bb98bb4b08f22ded7e69d248c7f1d66d164356e520a10246deab6040518080602001828103825260198152602001807f56656e646f722063726561746564206120436f6e74726163740000000000000081525060200191505060405180910390a1505050506122cd806102366000396000f3fe6080604052600436106100865760003560e01c80639b8a74f0116100595780639b8a74f0146101d5578063b1b9e78d14610226578063b69ef8a814610274578063f51f96dd1461029f578063fa89401a146102ca57610086565b806363b8817c1461008b57806376eea7bf146100dc578063893d20e81461012d57806395ccdddb14610184575b600080fd5b34801561009757600080fd5b506100da600480360360208110156100ae57600080fd5b81019080803573ffffffffffffffffffffffffffffffffffffffff16906020019092919050505061031b565b005b3480156100e857600080fd5b5061012b600480360360208110156100ff57600080fd5b81019080803573ffffffffffffffffffffffffffffffffffffffff1690602001909291905050506107b8565b005b34801561013957600080fd5b50610142610be1565b604051808273ffffffffffffffffffffffffffffffffffffffff1673ffffffffffffffffffffffffffffffffffffffff16815260200191505060405180910390f35b34801561019057600080fd5b506101d3600480360360208110156101a757600080fd5b81019080803573ffffffffffffffffffffffffffffffffffffffff169060200190929190505050610c0a565b005b3480156101e157600080fd5b50610224600480360360208110156101f857600080fd5b81019080803573ffffffffffffffffffffffffffffffffffffffff169060200190929190505050610f30565b005b6102726004803603604081101561023c57600080fd5b81019080803573ffffffffffffffffffffffffffffffffffffffff16906020019092919080359060200190929190505050611380565b005b34801561028057600080fd5b50610289611648565b6040518082815260200191505060405180910390f35b3480156102ab57600080fd5b506102b4611667565b6040518082815260200191505060405180910390f35b3480156102d657600080fd5b50610319600480360360208110156102ed57600080fd5b81019080803573ffffffffffffffffffffffffffffffffffffffff169060200190929190505050611671565b005b80600260009054906101000a900473ffffffffffffffffffffffffffffffffffffffff168073ffffffffffffffffffffffffffffffffffffffff168273ffffffffffffffffffffffffffffffffffffffff16146103c3576040517f08c379a00000000000000000000000000000000000000000000000000000000081526004018080602001828103825260228152602001806121316022913960400191505060405180910390fd5b6002600460019054906101000a900460ff1660048111156103e057fe5b8160048111156103ec57fe5b1461045f576040517f08c379a00000000000000000000000000000000000000000000000000000000081526004018080602001828103825260178152602001807f496e76616c69642061677265656d656e7420737461746500000000000000000081525060200191505060405180910390fd5b60006104e9600f6104db606460056000600260009054906101000a900473ffffffffffffffffffffffffffffffffffffffff1673ffffffffffffffffffffffffffffffffffffffff1673ffffffffffffffffffffffffffffffffffffffff16815260200190815260200160002054611c3890919063ffffffff16565b611c8290919063ffffffff16565b9050600061056160056000600160009054906101000a900473ffffffffffffffffffffffffffffffffffffffff1673ffffffffffffffffffffffffffffffffffffffff1673ffffffffffffffffffffffffffffffffffffffff1681526020019081526020016000205483611d0890919063ffffffff16565b9050610585813073ffffffffffffffffffffffffffffffffffffffff163111611d90565b6105da576040517f08c379a00000000000000000000000000000000000000000000000000000000081526004018080602001828103825260288152602001806121746028913960400191505060405180910390fd5b600260009054906101000a900473ffffffffffffffffffffffffffffffffffffffff1673ffffffffffffffffffffffffffffffffffffffff166108fc829081150290604051600060405180830381858888f19350505050158015610642573d6000803e3d6000fd5b5061066660003073ffffffffffffffffffffffffffffffffffffffff163111611d90565b6106bb576040517f08c379a000000000000000000000000000000000000000000000000000000000815260040180806020018281038252602781526020018061221e6027913960400191505060405180910390fd5b6000809054906101000a900473ffffffffffffffffffffffffffffffffffffffff1673ffffffffffffffffffffffffffffffffffffffff166108fc3073ffffffffffffffffffffffffffffffffffffffff16319081150290604051600060405180830381858888f19350505050158015610739573d6000803e3d6000fd5b5060048060016101000a81548160ff0219169083600481111561075857fe5b02179055507ff55724537bab7469e5f9d92dc53f2feac7a209ec49784e274046db0b14dc527360405180806020018281038252602981526020018061226f6029913960400191505060405180910390a16107b0611d9a565b505050505050565b806000809054906101000a900473ffffffffffffffffffffffffffffffffffffffff168073ffffffffffffffffffffffffffffffffffffffff168273ffffffffffffffffffffffffffffffffffffffff161461085f576040517f08c379a000000000000000000000000000000000000000000000000000000000815260040180806020018281038252602281526020018061210f6022913960400191505060405180910390fd5b6001600460019054906101000a900460ff16600481111561087c57fe5b81600481111561088857fe5b146108fb576040517f08c379a00000000000000000000000000000000000000000000000000000000081526004018080602001828103825260178152602001807f496e76616c69642061677265656d656e7420737461746500000000000000000081525060200191505060405180910390fd5b61097e60056000600160009054906101000a900473ffffffffffffffffffffffffffffffffffffffff1673ffffffffffffffffffffffffffffffffffffffff1673ffffffffffffffffffffffffffffffffffffffff168152602001908152602001600020543073ffffffffffffffffffffffffffffffffffffffff163111611d90565b6109f0576040517f08c379a000000000000000000000000000000000000000000000000000000000815260040180806020018281038252601f8152602001807f6e6f7420656e6f7567682066756e6420746f2070617920637573746f6d65720081525060200191505060405180910390fd5b600160009054906101000a900473ffffffffffffffffffffffffffffffffffffffff1673ffffffffffffffffffffffffffffffffffffffff166108fc60056000600160009054906101000a900473ffffffffffffffffffffffffffffffffffffffff1673ffffffffffffffffffffffffffffffffffffffff1673ffffffffffffffffffffffffffffffffffffffff168152602001908152602001600020549081150290604051600060405180830381858888f19350505050158015610ab9573d6000803e3d6000fd5b50610b3e60056000600260009054906101000a900473ffffffffffffffffffffffffffffffffffffffff1673ffffffffffffffffffffffffffffffffffffffff1673ffffffffffffffffffffffffffffffffffffffff168152602001908152602001600020543073ffffffffffffffffffffffffffffffffffffffff16311015611d90565b610bb0576040517f08c379a000000000000000000000000000000000000000000000000000000000815260040180806020018281038252601d8152602001807f6e6f7420656e6f7567682066756e647320746f20706179206f776e657200000081525060200191505060405180910390fd5b60048060016101000a81548160ff02191690836004811115610bce57fe5b0217905550610bdb611d9a565b50505050565b60008060009054906101000a900473ffffffffffffffffffffffffffffffffffffffff16905090565b80600160009054906101000a900473ffffffffffffffffffffffffffffffffffffffff168073ffffffffffffffffffffffffffffffffffffffff168273ffffffffffffffffffffffffffffffffffffffff1614610cb2576040517f08c379a00000000000000000000000000000000000000000000000000000000081526004018080602001828103825260258152602001806120ea6025913960400191505060405180910390fd5b6001600460019054906101000a900460ff166004811115610ccf57fe5b816004811115610cdb57fe5b14610d4e576040517f08c379a00000000000000000000000000000000000000000000000000000000081526004018080602001828103825260178152602001807f496e76616c69642061677265656d656e7420737461746500000000000000000081525060200191505060405180910390fd5b6000610dd8600f610dca606460056000600260009054906101000a900473ffffffffffffffffffffffffffffffffffffffff1673ffffffffffffffffffffffffffffffffffffffff1673ffffffffffffffffffffffffffffffffffffffff16815260200190815260200160002054611c3890919063ffffffff16565b611c8290919063ffffffff16565b9050610dfc813073ffffffffffffffffffffffffffffffffffffffff163111611d90565b610e51576040517f08c379a000000000000000000000000000000000000000000000000000000000815260040180806020018281038252603181526020018061219c6031913960400191505060405180910390fd5b600160009054906101000a900473ffffffffffffffffffffffffffffffffffffffff1673ffffffffffffffffffffffffffffffffffffffff166108fc829081150290604051600060405180830381858888f19350505050158015610eb9573d6000803e3d6000fd5b506002600460016101000a81548160ff02191690836004811115610ed957fe5b02179055507ff55724537bab7469e5f9d92dc53f2feac7a209ec49784e274046db0b14dc527360405180806020018281038252602b81526020018061209a602b913960400191505060405180910390a15050505050565b80600260009054906101000a900473ffffffffffffffffffffffffffffffffffffffff168073ffffffffffffffffffffffffffffffffffffffff168273ffffffffffffffffffffffffffffffffffffffff1614610fd8576040517f08c379a00000000000000000000000000000000000000000000000000000000081526004018080602001828103825260228152602001806121316022913960400191505060405180910390fd5b6000600460019054906101000a900460ff166004811115610ff557fe5b81600481111561100157fe5b14611074576040517f08c379a00000000000000000000000000000000000000000000000000000000081526004018080602001828103825260178152602001807f496e76616c69642061677265656d656e7420737461746500000000000000000081525060200191505060405180910390fd5b60006110fe60416110f0606460056000600260009054906101000a900473ffffffffffffffffffffffffffffffffffffffff1673ffffffffffffffffffffffffffffffffffffffff1673ffffffffffffffffffffffffffffffffffffffff16815260200190815260200160002054611c3890919063ffffffff16565b611c8290919063ffffffff16565b9050611122813073ffffffffffffffffffffffffffffffffffffffff163111611d90565b611177576040517f08c379a000000000000000000000000000000000000000000000000000000000815260040180806020018281038252602c8152602001806121cd602c913960400191505060405180910390fd5b600260009054906101000a900473ffffffffffffffffffffffffffffffffffffffff1673ffffffffffffffffffffffffffffffffffffffff166108fc829081150290604051600060405180830381858888f193505050501580156111df573d6000803e3d6000fd5b5061120360003073ffffffffffffffffffffffffffffffffffffffff163111611d90565b611258576040517f08c379a000000000000000000000000000000000000000000000000000000000815260040180806020018281038252602781526020018061221e6027913960400191505060405180910390fd5b6000809054906101000a900473ffffffffffffffffffffffffffffffffffffffff1673ffffffffffffffffffffffffffffffffffffffff166108fc3073ffffffffffffffffffffffffffffffffffffffff16319081150290604051600060405180830381858888f193505050501580156112d6573d6000803e3d6000fd5b506003600460016101000a81548160ff021916908360048111156112f657fe5b02179055507ff5985acde1acd93854c3f39bd9a1afaf04b718249e0e971c3fa3c41bfff4e7646040518080602001828103825260258152602001806120c56025913960400191505060405180910390a16000809054906101000a900473ffffffffffffffffffffffffffffffffffffffff1673ffffffffffffffffffffffffffffffffffffffff16ff5b81600260009054906101000a900473ffffffffffffffffffffffffffffffffffffffff168073ffffffffffffffffffffffffffffffffffffffff168273ffffffffffffffffffffffffffffffffffffffff161415611429576040517f08c379a00000000000000000000000000000000000000000000000000000000081526004018080602001828103825260268152602001806120746026913960400191505060405180910390fd5b60035483101561143a57600061143d565b60015b80611493576040517f08c379a00000000000000000000000000000000000000000000000000000000081526004018080602001828103825260258152602001806121f96025913960400191505060405180910390fd5b6000600460019054906101000a900460ff1660048111156114b057fe5b8160048111156114bc57fe5b1461152f576040517f08c379a00000000000000000000000000000000000000000000000000000000081526004018080602001828103825260178152602001807f496e76616c69642061677265656d656e7420737461746500000000000000000081525060200191505060405180910390fd5b85600160006101000a81548173ffffffffffffffffffffffffffffffffffffffff021916908373ffffffffffffffffffffffffffffffffffffffff16021790555034600560008873ffffffffffffffffffffffffffffffffffffffff1673ffffffffffffffffffffffffffffffffffffffff168152602001908152602001600020819055506001600460016101000a81548160ff021916908360048111156115d357fe5b02179055507f63eb1933534e0191a23d7b11ba7e48e1856f4d4e5f4e0c3e943964d2bce713d36040518080602001828103825260188152602001807f42696e64696e6720636f6e74726163742063726561746564000000000000000081525060200191505060405180910390a1505050505050565b60003073ffffffffffffffffffffffffffffffffffffffff1631905090565b6000600354905090565b80600260009054906101000a900473ffffffffffffffffffffffffffffffffffffffff168073ffffffffffffffffffffffffffffffffffffffff168273ffffffffffffffffffffffffffffffffffffffff1614611719576040517f08c379a00000000000000000000000000000000000000000000000000000000081526004018080602001828103825260228152602001806121316022913960400191505060405180910390fd5b6001600460019054906101000a900460ff16600481111561173657fe5b81600481111561174257fe5b146117b5576040517f08c379a00000000000000000000000000000000000000000000000000000000081526004018080602001828103825260178152602001807f496e76616c69642061677265656d656e7420737461746500000000000000000081525060200191505060405180910390fd5b60006118b260086118a4606461189660056000600260009054906101000a900473ffffffffffffffffffffffffffffffffffffffff1673ffffffffffffffffffffffffffffffffffffffff1673ffffffffffffffffffffffffffffffffffffffff1681526020019081526020016000205460056000600160009054906101000a900473ffffffffffffffffffffffffffffffffffffffff1673ffffffffffffffffffffffffffffffffffffffff1673ffffffffffffffffffffffffffffffffffffffff16815260200190815260200160002054611d0890919063ffffffff16565b611c3890919063ffffffff16565b611c8290919063ffffffff16565b9050600061193e6046611930606460056000600260009054906101000a900473ffffffffffffffffffffffffffffffffffffffff1673ffffffffffffffffffffffffffffffffffffffff1673ffffffffffffffffffffffffffffffffffffffff16815260200190815260200160002054611c3890919063ffffffff16565b611c8290919063ffffffff16565b905060006119ca60166119bc606460056000600260009054906101000a900473ffffffffffffffffffffffffffffffffffffffff1673ffffffffffffffffffffffffffffffffffffffff1673ffffffffffffffffffffffffffffffffffffffff16815260200190815260200160002054611c3890919063ffffffff16565b611c8290919063ffffffff16565b90506119ee833073ffffffffffffffffffffffffffffffffffffffff163111611d90565b611a43576040517f08c379a000000000000000000000000000000000000000000000000000000000815260040180806020018281038252602a815260200180612245602a913960400191505060405180910390fd5b600160009054906101000a900473ffffffffffffffffffffffffffffffffffffffff1673ffffffffffffffffffffffffffffffffffffffff166108fc849081150290604051600060405180830381858888f19350505050158015611aab573d6000803e3d6000fd5b50611ace823073ffffffffffffffffffffffffffffffffffffffff163111611d90565b611b23576040517f08c379a00000000000000000000000000000000000000000000000000000000081526004018080602001828103825260288152602001806121746028913960400191505060405180910390fd5b600260009054906101000a900473ffffffffffffffffffffffffffffffffffffffff1673ffffffffffffffffffffffffffffffffffffffff166108fc839081150290604051600060405180830381858888f19350505050158015611b8b573d6000803e3d6000fd5b50611baf813073ffffffffffffffffffffffffffffffffffffffff16311015611d90565b611c04576040517f08c379a000000000000000000000000000000000000000000000000000000000815260040180806020018281038252602781526020018061221e6027913960400191505060405180910390fd5b60048060016101000a81548160ff02191690836004811115611c2257fe5b0217905550611c2f611d9a565b50505050505050565b6000611c7a83836040518060400160405280601a81526020017f536166654d6174683a206469766973696f6e206279207a65726f000000000000815250611fad565b905092915050565b600080831415611c955760009050611d02565b6000828402905082848281611ca657fe5b0414611cfd576040517f08c379a00000000000000000000000000000000000000000000000000000000081526004018080602001828103825260218152602001806121536021913960400191505060405180910390fd5b809150505b92915050565b600080828401905083811015611d86576040517f08c379a000000000000000000000000000000000000000000000000000000000815260040180806020018281038252601b8152602001807f536166654d6174683a206164646974696f6e206f766572666c6f77000000000081525060200191505060405180910390fd5b8091505092915050565b6000819050919050565b60048060019054906101000a900460ff166004811115611db657fe5b816004811115611dc257fe5b14611e35576040517f08c379a00000000000000000000000000000000000000000000000000000000081526004018080602001828103825260178152602001807f496e76616c69642061677265656d656e7420737461746500000000000000000081525060200191505060405180910390fd5b600060056000600160009054906101000a900473ffffffffffffffffffffffffffffffffffffffff1673ffffffffffffffffffffffffffffffffffffffff1673ffffffffffffffffffffffffffffffffffffffff16815260200190815260200160002081905550600060056000600260009054906101000a900473ffffffffffffffffffffffffffffffffffffffff1673ffffffffffffffffffffffffffffffffffffffff1673ffffffffffffffffffffffffffffffffffffffff1681526020019081526020016000208190555060006003819055507fc2026cebaa9c03424daf16a697d1f5687c7af19543a500aa2ce309838e9d1cf360405180806020018281038252601b8152602001807f42696e64696e6720636f6e7472616374207465726d696e61746564000000000081525060200191505060405180910390a16000809054906101000a900473ffffffffffffffffffffffffffffffffffffffff1673ffffffffffffffffffffffffffffffffffffffff16ff5b60008083118290612059576040517f08c379a00000000000000000000000000000000000000000000000000000000081526004018080602001828103825283818151815260200191508051906020019080838360005b8381101561201e578082015181840152602081019050612003565b50505050905090810190601f16801561204b5780820380516001836020036101000a031916815260200191505b509250505060405180910390fd5b50600083858161206557fe5b04905080915050939250505056fe56656e646f722063616e6e6f7420627579206869732f686572206f776e207468696e67287329437573746f6d657220636f6e6669726d65642064656c6976657279206f6620676f6f642f7365727669636556656e646f722063616e63656c6c6564206e6f6e2d62696e64696e6720636f6e74726163744f6e6c7920637573746f6d65722063616e2063616c6c20746869732066756e6374696f6e206f6e6c79206f776e65722063616e2063616c6c20746869732066756e6374696f6e204f6e6c792076656e646f722063616e2063616c6c20746869732066756e6374696f6e536166654d6174683a206d756c7469706c69636174696f6e206f766572666c6f776e6f7420656e6f7567682066756e647320617661696c61626c6520746f207061792076656e646f726e6f7420656e6f7567682066756e647320617661696c61626c6520746f2070617920637573746f6d6572207265776172646e6f7420656e6f7567682066756e647320617661696c61626c6520746f2070726f6365737320726566756e64616d6f756e74206e6f7420656e6f75676820746f20636f7665722073616c6520636f7374736e6f7420656e6f7567682066756e647320617661696c61626c6520746f20706179206f776e65726e6f7420656e6f7567682066756e647320617661696c61626c6520746f2070617920637573746f6d6572436f6e7472616374207375636365737366756c6c7920636f6e636c756465642062792076656e646f72a2646970667358221220d155a475b5245b7230b202d9228aa9e7d5593cafcb2255d367aaee4f00fd09d664736f6c63430006040033",
  "source": "pragma solidity ^0.6.4;\r\n\r\nimport \"./SafeMath.sol\";\r\nimport \"./Events.sol\";\r\nimport \"./Middleware.sol\";\r\n\r\n\r\n//@dev contract facilitates payment between custormer and product\r\n//provider\r\ncontract Sale is Middleware, Events {\r\n    using SafeMath for uint256;\r\n    //owner must be set to address of parent contract iniator\r\n    // can only be rest by former owner\r\n    address payable internal owner;\r\n    address payable internal customer;\r\n    address payable internal vendor;\r\n    uint256 price;\r\n    enum adPaid {No, Yes}\r\n    adPaid internal paid;\r\n    enum agreement {Created, Binding, Concluded, Cancelled, Unenforceable}\r\n    agreement internal agreementState;\r\n\r\n    mapping(address => uint256) internal balances;\r\n\r\n    modifier adSpacePaid(adPaid answer) {\r\n        require(answer == paid, \"Add space already paid  for\");\r\n        _;\r\n    }\r\n    modifier currentAgreementState(agreement _current) {\r\n        require(_current == agreementState, \"Invalid agreement state\");\r\n        _;\r\n    }\r\n\r\n    function makePayment(bool _condition) internal pure returns (bool) {\r\n        return _condition;\r\n    }\r\n\r\n    constructor(\r\n        address payable _vendor,\r\n        address payable _owner,\r\n        uint256 _adPrice,\r\n        uint256 _salePrice\r\n    ) public payable {\r\n        require(msg.value >= _adPrice, \"not enough funds to pay ad space\");\r\n        owner = _owner;\r\n        vendor = _vendor;\r\n        price = _salePrice;\r\n        balances[_vendor] = _adPrice;\r\n        paid = adPaid.Yes;\r\n        emit AgreementCreated(\"Vendor created a Contract\");\r\n    }\r\n\r\n    function cancelOffer(address _addr)\r\n        external\r\n        onlyVendor(_addr, vendor)\r\n        currentAgreementState(agreement.Created)\r\n    {\r\n        // refund vendor , deduct service rendered amount\r\n        // payer owner a service fee of 35%\r\n        //  use a math library\r\n        //write code that transfers 65% of money correctly vendor from contract\r\n        // and transfer whatever is left to owner from contract\r\n        uint256 refund = uint256(balances[vendor].div(100).mul(65));\r\n        require(\r\n            makePayment((address(this).balance > refund)),\r\n            \"not enough funds available to process refund\"\r\n        );\r\n        vendor.transfer(refund);\r\n        require(\r\n            makePayment((address(this).balance > 0)),\r\n            \"not enough funds available to pay owner\"\r\n        );\r\n        owner.transfer(address(this).balance);\r\n        agreementState = agreement.Cancelled;\r\n        emit AgreementAborted(\"Vendor cancelled non-binding contract\");\r\n        selfdestruct(owner);\r\n    }\r\n\r\n    function acceptOffer(address payable _customer, uint256 _amt)\r\n        external\r\n        payable\r\n        notVendor(_customer, vendor)\r\n        saleRequiredAmount(_amt >= price ? true : false)\r\n        currentAgreementState(agreement.Created)\r\n    {\r\n        customer = _customer;\r\n        balances[_customer] = msg.value;\r\n        agreementState = agreement.Binding;\r\n        emit AgreementBinding(\"Binding contract created\");\r\n        // on the webapp site promte vendor to set estimated delivery time\r\n        // when such time lapses & contract state is stil binding\r\n        // cancel contract and refund ppl & terminate contract\r\n    }\r\n\r\n    function agreementConcluded(address _addr)\r\n        external\r\n        onlyCustomer(_addr, customer)\r\n        currentAgreementState(agreement.Binding)\r\n    {\r\n        //  reward customer with 15% of vendor ad paid money\r\n        uint256 reward = uint256(balances[vendor].div(100).mul(15));\r\n        require(\r\n            makePayment((address(this).balance > reward)),\r\n            \"not enough funds available to pay customer reward\"\r\n        );\r\n        customer.transfer(reward);\r\n        agreementState = agreement.Concluded;\r\n        emit AgreementConcluded(\"Customer confirmed delivery of good/service\");\r\n    }\r\n\r\n    function refund(address _addr)\r\n        external\r\n        onlyVendor(_addr, vendor)\r\n        currentAgreementState(agreement.Binding)\r\n    {\r\n        // refund customer with his payment plus 8% of ad money vendor paid\r\n        // refund vendor with 70% ad money vendor paid\r\n        // pay owner 22% (ad money) left in contract account\r\n        uint256 customerRefund = uint256(balances[customer].add(balances[vendor]).div(100).mul(8));\r\n        uint256 vendorRefund = uint256(balances[vendor].div(100).mul(70));\r\n        uint256 ownerReward = uint256(balances[vendor].div(100).mul(22));\r\n        require(\r\n            makePayment((address(this).balance > customerRefund)),\r\n            \"not enough funds available to pay customer\"\r\n        );\r\n        customer.transfer(customerRefund);\r\n        require(\r\n            makePayment((address(this).balance > vendorRefund)),\r\n            \"not enough funds available to pay vendor\"\r\n        );\r\n        vendor.transfer(vendorRefund);\r\n        require(\r\n            makePayment((address(this).balance >= ownerReward)),\r\n            \"not enough funds available to pay owner\"\r\n        );\r\n        agreementState = agreement.Unenforceable;\r\n        terminate();\r\n    }\r\n\r\n    function getPaid(address _addr)\r\n        external\r\n        onlyVendor(_addr, vendor)\r\n        currentAgreementState(agreement.Concluded)\r\n    {\r\n        // pay vendor amount owned from sale plus 15% of ad money \r\n        // pay owner amount left in contract balance 70% (ad money)\r\n        uint256 reward = uint256(balances[vendor].div(100).mul(15));\r\n        uint256 total = uint256(reward.add(balances[customer]));\r\n        require(\r\n            makePayment((address(this).balance > total)),\r\n            \"not enough funds available to pay vendor\"\r\n        );\r\n        vendor.transfer(total);\r\n        require(\r\n            makePayment((address(this).balance > 0)),\r\n            \"not enough funds available to pay owner\"\r\n        );\r\n        owner.transfer(address(this).balance);\r\n        agreementState = agreement.Unenforceable;\r\n        emit AgreementConcluded(\"Contract successfully concluded by vendor\");\r\n        terminate();\r\n    }\r\n\r\n    // only callable if vendor failed to deliver after with estimated delivery time\r\n    // set in web app database\r\n    // give customer full refund no ad money share.\r\n    // pay owner entire amount in contract\r\n    // vendor gets nothing\r\n    function terminateAndRefund(address _addr)\r\n        external\r\n        onlyOwner(_addr, owner)\r\n        currentAgreementState(agreement.Binding)\r\n    {\r\n        require(\r\n            makePayment((address(this).balance > balances[customer])),\r\n            \"not enough fund to pay customer\"\r\n        );\r\n        customer.transfer(balances[customer]);\r\n        require(\r\n            makePayment((address(this).balance >= balances[vendor])),\r\n            \"not enough funds to pay owner\"\r\n        );\r\n        agreementState = agreement.Unenforceable;\r\n        terminate();\r\n    }\r\n\r\n    function terminate()\r\n        internal\r\n        currentAgreementState(agreement.Unenforceable)\r\n    {\r\n        balances[customer] = 0;\r\n        balances[vendor] = 0;\r\n        price = 0;\r\n        emit ContractTerminated(\"Binding contract terminated\");\r\n        selfdestruct(owner);\r\n    }\r\n\r\n    //   write a fucntion that is to show how mush ether is neede to purcase\r\n    // write a functiion that is to show balance of contract\r\n\r\n    // decide to remove when deploying or not\r\n    function getOwner() external view returns (address _owner) {\r\n        _owner = owner;\r\n    }\r\n   // decide to remove when deploying or not\r\n    function balance() external view returns (uint256 _amt) {\r\n        _amt = address(this).balance;\r\n    }\r\n    // decide to remove when deploying or not\r\n    function salePrice () external view returns (uint256 _salePrice) {\r\n        _salePrice = price;\r\n    }\r\n}\r\n",
  "sourcePath": "C:\\Users\\user\\Desktop\\project_studio\\solidity\\projects\\tradeStore_Dapp\\client\\src\\contracts\\Sale.sol",
  "compiler": {
    "name": "solc",
    "version": "0.6.4+commit.1dca32f3.Emscripten.clang"
  },
  "schemaVersion": "3.0.23",
  "updatedAt": "2020-04-16T15:14:02.641Z",
  "devdoc": {
    "methods": {}
  },
  "userdoc": {
    "methods": {}
  }
}