{
  "contractName": "TradeStore",
  "abi": [
    {
      "inputs": [],
      "stateMutability": "payable",
      "type": "constructor",
      "payable": true
    },
    {
      "anonymous": false,
      "inputs": [
        {
          "indexed": false,
          "internalType": "string",
          "name": "_message",
          "type": "string"
        }
      ],
      "name": "AgreementAborted",
      "type": "event"
    },
    {
      "anonymous": false,
      "inputs": [
        {
          "indexed": false,
          "internalType": "string",
          "name": "_message",
          "type": "string"
        }
      ],
      "name": "AgreementBinding",
      "type": "event"
    },
    {
      "anonymous": false,
      "inputs": [
        {
          "indexed": false,
          "internalType": "string",
          "name": "_message",
          "type": "string"
        }
      ],
      "name": "AgreementConcluded",
      "type": "event"
    },
    {
      "anonymous": false,
      "inputs": [
        {
          "indexed": false,
          "internalType": "string",
          "name": "_message",
          "type": "string"
        }
      ],
      "name": "AgreementCreated",
      "type": "event"
    },
    {
      "anonymous": false,
      "inputs": [
        {
          "indexed": false,
          "internalType": "address",
          "name": "_contract",
          "type": "address"
        },
        {
          "indexed": false,
          "internalType": "address",
          "name": "_vendorAddress",
          "type": "address"
        },
        {
          "indexed": false,
          "internalType": "string",
          "name": "_message",
          "type": "string"
        }
      ],
      "name": "ContractCreated",
      "type": "event"
    },
    {
      "anonymous": false,
      "inputs": [
        {
          "indexed": false,
          "internalType": "string",
          "name": "_message",
          "type": "string"
        }
      ],
      "name": "ContractTerminated",
      "type": "event"
    },
    {
      "anonymous": false,
      "inputs": [
        {
          "indexed": false,
          "internalType": "address",
          "name": "_addr",
          "type": "address"
        },
        {
          "indexed": false,
          "internalType": "string",
          "name": "_message",
          "type": "string"
        },
        {
          "indexed": false,
          "internalType": "address",
          "name": "_creator",
          "type": "address"
        }
      ],
      "name": "NewContract",
      "type": "event"
    },
    {
      "anonymous": false,
      "inputs": [
        {
          "indexed": false,
          "internalType": "string",
          "name": "_message",
          "type": "string"
        }
      ],
      "name": "RefundPerformed",
      "type": "event"
    },
    {
      "inputs": [
        {
          "internalType": "address",
          "name": "",
          "type": "address"
        }
      ],
      "name": "availableTradeAgreement",
      "outputs": [
        {
          "internalType": "contract Sale",
          "name": "",
          "type": "address"
        }
      ],
      "stateMutability": "view",
      "type": "function",
      "constant": true
    },
    {
      "inputs": [
        {
          "internalType": "address",
          "name": "",
          "type": "address"
        },
        {
          "internalType": "address",
          "name": "",
          "type": "address"
        }
      ],
      "name": "contractToCustomer",
      "outputs": [
        {
          "internalType": "contract Sale",
          "name": "",
          "type": "address"
        }
      ],
      "stateMutability": "view",
      "type": "function",
      "constant": true
    },
    {
      "inputs": [
        {
          "internalType": "address",
          "name": "",
          "type": "address"
        },
        {
          "internalType": "address",
          "name": "",
          "type": "address"
        }
      ],
      "name": "contractToVendor",
      "outputs": [
        {
          "internalType": "contract Sale",
          "name": "",
          "type": "address"
        }
      ],
      "stateMutability": "view",
      "type": "function",
      "constant": true
    },
    {
      "inputs": [
        {
          "internalType": "address",
          "name": "",
          "type": "address"
        }
      ],
      "name": "customerContractCount",
      "outputs": [
        {
          "internalType": "uint256",
          "name": "",
          "type": "uint256"
        }
      ],
      "stateMutability": "view",
      "type": "function",
      "constant": true
    },
    {
      "inputs": [],
      "name": "owner",
      "outputs": [
        {
          "internalType": "address payable",
          "name": "",
          "type": "address"
        }
      ],
      "stateMutability": "view",
      "type": "function",
      "constant": true
    },
    {
      "inputs": [
        {
          "internalType": "address",
          "name": "",
          "type": "address"
        },
        {
          "internalType": "address",
          "name": "",
          "type": "address"
        }
      ],
      "name": "terminateSale",
      "outputs": [
        {
          "internalType": "contract Sale",
          "name": "",
          "type": "address"
        }
      ],
      "stateMutability": "view",
      "type": "function",
      "constant": true
    },
    {
      "inputs": [
        {
          "internalType": "address",
          "name": "",
          "type": "address"
        }
      ],
      "name": "terminated",
      "outputs": [
        {
          "internalType": "bool",
          "name": "",
          "type": "bool"
        }
      ],
      "stateMutability": "view",
      "type": "function",
      "constant": true
    },
    {
      "inputs": [],
      "name": "totalSalesBinding",
      "outputs": [
        {
          "internalType": "uint256",
          "name": "",
          "type": "uint256"
        }
      ],
      "stateMutability": "view",
      "type": "function",
      "constant": true
    },
    {
      "inputs": [],
      "name": "totalSalesDeclined",
      "outputs": [
        {
          "internalType": "uint256",
          "name": "",
          "type": "uint256"
        }
      ],
      "stateMutability": "view",
      "type": "function",
      "constant": true
    },
    {
      "inputs": [],
      "name": "totalSalesPending",
      "outputs": [
        {
          "internalType": "uint256",
          "name": "",
          "type": "uint256"
        }
      ],
      "stateMutability": "view",
      "type": "function",
      "constant": true
    },
    {
      "inputs": [],
      "name": "totalSalesSucceeded",
      "outputs": [
        {
          "internalType": "uint256",
          "name": "",
          "type": "uint256"
        }
      ],
      "stateMutability": "view",
      "type": "function",
      "constant": true
    },
    {
      "inputs": [
        {
          "internalType": "address",
          "name": "",
          "type": "address"
        }
      ],
      "name": "vendorContractCount",
      "outputs": [
        {
          "internalType": "uint256",
          "name": "",
          "type": "uint256"
        }
      ],
      "stateMutability": "view",
      "type": "function",
      "constant": true
    },
    {
      "inputs": [
        {
          "internalType": "uint256",
          "name": "_adPrice",
          "type": "uint256"
        },
        {
          "internalType": "uint256",
          "name": "_salePrice",
          "type": "uint256"
        }
      ],
      "name": "makeOffer",
      "outputs": [],
      "stateMutability": "payable",
      "type": "function",
      "payable": true
    },
    {
      "inputs": [
        {
          "internalType": "address",
          "name": "_contract",
          "type": "address"
        },
        {
          "internalType": "uint256",
          "name": "_amt",
          "type": "uint256"
        }
      ],
      "name": "acceptOffer",
      "outputs": [],
      "stateMutability": "payable",
      "type": "function",
      "payable": true
    },
    {
      "inputs": [
        {
          "internalType": "address",
          "name": "_contract",
          "type": "address"
        }
      ],
      "name": "cancelOffer",
      "outputs": [],
      "stateMutability": "nonpayable",
      "type": "function"
    },
    {
      "inputs": [
        {
          "internalType": "address",
          "name": "_contract",
          "type": "address"
        }
      ],
      "name": "agreementConclude",
      "outputs": [],
      "stateMutability": "nonpayable",
      "type": "function"
    },
    {
      "inputs": [
        {
          "internalType": "address",
          "name": "_contract",
          "type": "address"
        }
      ],
      "name": "refund",
      "outputs": [],
      "stateMutability": "nonpayable",
      "type": "function"
    },
    {
      "inputs": [
        {
          "internalType": "address",
          "name": "_contract",
          "type": "address"
        }
      ],
      "name": "getPaid",
      "outputs": [],
      "stateMutability": "nonpayable",
      "type": "function"
    },
    {
      "inputs": [
        {
          "internalType": "address",
          "name": "_contract",
          "type": "address"
        }
      ],
      "name": "terminateAndRefund",
      "outputs": [],
      "stateMutability": "nonpayable",
      "type": "function"
    },
    {
      "inputs": [
        {
          "internalType": "address payable",
          "name": "_owner",
          "type": "address"
        }
      ],
      "name": "setOwner",
      "outputs": [],
      "stateMutability": "nonpayable",
      "type": "function"
    },
    {
      "inputs": [
        {
          "internalType": "address",
          "name": "_contract",
          "type": "address"
        }
      ],
      "name": "getOwner",
      "outputs": [
        {
          "internalType": "address",
          "name": "_owner",
          "type": "address"
        }
      ],
      "stateMutability": "view",
      "type": "function",
      "constant": true
    },
    {
      "inputs": [
        {
          "internalType": "address",
          "name": "_contract",
          "type": "address"
        }
      ],
      "name": "contractBalance",
      "outputs": [
        {
          "internalType": "uint256",
          "name": "_amt",
          "type": "uint256"
        }
      ],
      "stateMutability": "view",
      "type": "function",
      "constant": true
    },
    {
      "inputs": [
        {
          "internalType": "address",
          "name": "_contract",
          "type": "address"
        }
      ],
      "name": "getSalePrice",
      "outputs": [
        {
          "internalType": "uint256",
          "name": "_amt",
          "type": "uint256"
        }
      ],
      "stateMutability": "view",
      "type": "function",
      "constant": true
    }
  ],
  "bytecode": "0x6080604052336000806101000a81548173ffffffffffffffffffffffffffffffffffffffff021916908373ffffffffffffffffffffffffffffffffffffffff160217905550614865806100536000396000f3fe6080604052600436106200015e5760003560e01c80637af4f4be11620000c7578063c53b77021162000079578063c53b7702146200077b578063e317953314620007e4578063e86d6401146200084d578063ef4a692c1462000902578063fa544161146200096f578063fa89401a1462000a04576200015e565b80637af4f4be146200058f5780638da5cb5b14620005e45780639b8a74f0146200063e578063b1b9e78d1462000693578063ba538eab14620006e4578063bc23e8a2146200074d576200015e565b80633197d69411620001215780633197d694146200031f5780633e489867146200034d5780634a053ebf146200040257806363b8817c14620004b75780637104633d146200050c57806376eea7bf146200053a576200015e565b806305b7cdd3146200016357806313af4035146200019e5780632250ef1314620001f357806324e0994b14620002215780632ad8396a14620002b6575b600080fd5b6200019c600480360360408110156200017b57600080fd5b81019080803590602001909291908035906020019092919050505062000a59565b005b348015620001ab57600080fd5b50620001f160048036036020811015620001c457600080fd5b81019080803573ffffffffffffffffffffffffffffffffffffffff16906020019092919050505062000e72565b005b3480156200020057600080fd5b506200020b62000f78565b6040518082815260200191505060405180910390f35b3480156200022e57600080fd5b5062000274600480360360208110156200024757600080fd5b81019080803573ffffffffffffffffffffffffffffffffffffffff16906020019092919050505062000f7e565b604051808273ffffffffffffffffffffffffffffffffffffffff1673ffffffffffffffffffffffffffffffffffffffff16815260200191505060405180910390f35b348015620002c357600080fd5b506200030960048036036020811015620002dc57600080fd5b81019080803573ffffffffffffffffffffffffffffffffffffffff16906020019092919050505062000fb1565b6040518082815260200191505060405180910390f35b3480156200032c57600080fd5b506200033762000fc9565b6040518082815260200191505060405180910390f35b3480156200035a57600080fd5b50620003c0600480360360408110156200037357600080fd5b81019080803573ffffffffffffffffffffffffffffffffffffffff169060200190929190803573ffffffffffffffffffffffffffffffffffffffff16906020019092919050505062000fcf565b604051808273ffffffffffffffffffffffffffffffffffffffff1673ffffffffffffffffffffffffffffffffffffffff16815260200191505060405180910390f35b3480156200040f57600080fd5b5062000475600480360360408110156200042857600080fd5b81019080803573ffffffffffffffffffffffffffffffffffffffff169060200190929190803573ffffffffffffffffffffffffffffffffffffffff16906020019092919050505062001011565b604051808273ffffffffffffffffffffffffffffffffffffffff1673ffffffffffffffffffffffffffffffffffffffff16815260200191505060405180910390f35b348015620004c457600080fd5b506200050a60048036036020811015620004dd57600080fd5b81019080803573ffffffffffffffffffffffffffffffffffffffff16906020019092919050505062001053565b005b3480156200051957600080fd5b5062000524620011b6565b6040518082815260200191505060405180910390f35b3480156200054757600080fd5b506200058d600480360360208110156200056057600080fd5b81019080803573ffffffffffffffffffffffffffffffffffffffff169060200190929190505050620011bc565b005b3480156200059c57600080fd5b50620005e260048036036020811015620005b557600080fd5b81019080803573ffffffffffffffffffffffffffffffffffffffff16906020019092919050505062001556565b005b348015620005f157600080fd5b50620005fc62001694565b604051808273ffffffffffffffffffffffffffffffffffffffff1673ffffffffffffffffffffffffffffffffffffffff16815260200191505060405180910390f35b3480156200064b57600080fd5b5062000691600480360360208110156200066457600080fd5b81019080803573ffffffffffffffffffffffffffffffffffffffff169060200190929190505050620016b9565b005b620006e260048036036040811015620006ab57600080fd5b81019080803573ffffffffffffffffffffffffffffffffffffffff169060200190929190803590602001909291905050506200180a565b005b348015620006f157600080fd5b5062000737600480360360208110156200070a57600080fd5b81019080803573ffffffffffffffffffffffffffffffffffffffff16906020019092919050505062001b11565b6040518082815260200191505060405180910390f35b3480156200075a57600080fd5b506200076562001b29565b6040518082815260200191505060405180910390f35b3480156200078857600080fd5b50620007ce60048036036020811015620007a157600080fd5b81019080803573ffffffffffffffffffffffffffffffffffffffff16906020019092919050505062001b2f565b6040518082815260200191505060405180910390f35b348015620007f157600080fd5b5062000837600480360360208110156200080a57600080fd5b81019080803573ffffffffffffffffffffffffffffffffffffffff16906020019092919050505062001d3d565b6040518082815260200191505060405180910390f35b3480156200085a57600080fd5b50620008c0600480360360408110156200087357600080fd5b81019080803573ffffffffffffffffffffffffffffffffffffffff169060200190929190803573ffffffffffffffffffffffffffffffffffffffff16906020019092919050505062001f4b565b604051808273ffffffffffffffffffffffffffffffffffffffff1673ffffffffffffffffffffffffffffffffffffffff16815260200191505060405180910390f35b3480156200090f57600080fd5b5062000955600480360360208110156200092857600080fd5b81019080803573ffffffffffffffffffffffffffffffffffffffff16906020019092919050505062001f8d565b604051808215151515815260200191505060405180910390f35b3480156200097c57600080fd5b50620009c2600480360360208110156200099557600080fd5b81019080803573ffffffffffffffffffffffffffffffffffffffff16906020019092919050505062001fad565b604051808273ffffffffffffffffffffffffffffffffffffffff1673ffffffffffffffffffffffffffffffffffffffff16815260200191505060405180910390f35b34801562000a1157600080fd5b5062000a576004803603602081101562000a2a57600080fd5b81019080803573ffffffffffffffffffffffffffffffffffffffff169060200190929190505050620021bb565b005b600082336000809054906101000a900473ffffffffffffffffffffffffffffffffffffffff16858560405162000a8f906200231e565b808573ffffffffffffffffffffffffffffffffffffffff1673ffffffffffffffffffffffffffffffffffffffff1681526020018473ffffffffffffffffffffffffffffffffffffffff1673ffffffffffffffffffffffffffffffffffffffff1681526020018381526020018281526020019450505050506040518091039082f090508015801562000b24573d6000803e3d6000fd5b50905080600360008373ffffffffffffffffffffffffffffffffffffffff1673ffffffffffffffffffffffffffffffffffffffff16815260200190815260200160002060003373ffffffffffffffffffffffffffffffffffffffff1673ffffffffffffffffffffffffffffffffffffffff16815260200190815260200160002060006101000a81548173ffffffffffffffffffffffffffffffffffffffff021916908373ffffffffffffffffffffffffffffffffffffffff16021790555080600560008373ffffffffffffffffffffffffffffffffffffffff1673ffffffffffffffffffffffffffffffffffffffff16815260200190815260200160002060006101000a81548173ffffffffffffffffffffffffffffffffffffffff021916908373ffffffffffffffffffffffffffffffffffffffff16021790555080600660008373ffffffffffffffffffffffffffffffffffffffff1673ffffffffffffffffffffffffffffffffffffffff16815260200190815260200160002060008060009054906101000a900473ffffffffffffffffffffffffffffffffffffffff1673ffffffffffffffffffffffffffffffffffffffff1673ffffffffffffffffffffffffffffffffffffffff16815260200190815260200160002060006101000a81548173ffffffffffffffffffffffffffffffffffffffff021916908373ffffffffffffffffffffffffffffffffffffffff160217905550600160003373ffffffffffffffffffffffffffffffffffffffff1673ffffffffffffffffffffffffffffffffffffffff168152602001908152602001600020600081548092919060010191905055506008600081548092919060010191905055507f598552d87d0fe1b578227518d9bfc68bc920f3d2965988c4bc4565d517829b1c8133604051808373ffffffffffffffffffffffffffffffffffffffff1673ffffffffffffffffffffffffffffffffffffffff168152602001806020018373ffffffffffffffffffffffffffffffffffffffff1673ffffffffffffffffffffffffffffffffffffffff168152602001828103825260198152602001807f6e65772073616c6520636f6e7472616374206372656174656400000000000000815250602001935050505060405180910390a1505050565b6000809054906101000a900473ffffffffffffffffffffffffffffffffffffffff1673ffffffffffffffffffffffffffffffffffffffff163373ffffffffffffffffffffffffffffffffffffffff161462000f35576040517f08c379a00000000000000000000000000000000000000000000000000000000081526004018080602001828103825260198152602001807f6f6e6c79206f776e657220697320617574686f72697a6564200000000000000081525060200191505060405180910390fd5b806000806101000a81548173ffffffffffffffffffffffffffffffffffffffff021916908373ffffffffffffffffffffffffffffffffffffffff16021790555050565b600b5481565b60056020528060005260406000206000915054906101000a900473ffffffffffffffffffffffffffffffffffffffff1681565b60026020528060005260406000206000915090505481565b60085481565b60066020528160005260406000206020528060005260406000206000915091509054906101000a900473ffffffffffffffffffffffffffffffffffffffff1681565b60046020528160005260406000206020528060005260406000206000915091509054906101000a900473ffffffffffffffffffffffffffffffffffffffff1681565b6000600360008373ffffffffffffffffffffffffffffffffffffffff1673ffffffffffffffffffffffffffffffffffffffff16815260200190815260200160002060003373ffffffffffffffffffffffffffffffffffffffff1673ffffffffffffffffffffffffffffffffffffffff16815260200190815260200160002060009054906101000a900473ffffffffffffffffffffffffffffffffffffffff1690508073ffffffffffffffffffffffffffffffffffffffff166363b8817c336040518263ffffffff1660e01b8152600401808273ffffffffffffffffffffffffffffffffffffffff1673ffffffffffffffffffffffffffffffffffffffff168152602001915050600060405180830381600087803b1580156200117457600080fd5b505af115801562001189573d6000803e3d6000fd5b5050505060096000815480929190600190039190505550600b600081548092919060010191905055505050565b60095481565b6000809054906101000a900473ffffffffffffffffffffffffffffffffffffffff1673ffffffffffffffffffffffffffffffffffffffff163373ffffffffffffffffffffffffffffffffffffffff16146200127f576040517f08c379a00000000000000000000000000000000000000000000000000000000081526004018080602001828103825260198152602001807f6f6e6c79206f776e657220697320617574686f72697a6564200000000000000081525060200191505060405180910390fd5b600760008273ffffffffffffffffffffffffffffffffffffffff1673ffffffffffffffffffffffffffffffffffffffff16815260200190815260200160002060009054906101000a900460ff161562001340576040517f08c379a000000000000000000000000000000000000000000000000000000000815260040180806020018281038252601b8152602001807f636f6e747261637420616c7265616479207465726d696e61746564000000000081525060200191505060405180910390fd5b60001515600760008373ffffffffffffffffffffffffffffffffffffffff1673ffffffffffffffffffffffffffffffffffffffff16815260200190815260200160002060009054906101000a900460ff161515141562001553576000600660008373ffffffffffffffffffffffffffffffffffffffff1673ffffffffffffffffffffffffffffffffffffffff16815260200190815260200160002060003373ffffffffffffffffffffffffffffffffffffffff1673ffffffffffffffffffffffffffffffffffffffff16815260200190815260200160002060009054906101000a900473ffffffffffffffffffffffffffffffffffffffff1690508073ffffffffffffffffffffffffffffffffffffffff166376eea7bf336040518263ffffffff1660e01b8152600401808273ffffffffffffffffffffffffffffffffffffffff1673ffffffffffffffffffffffffffffffffffffffff168152602001915050600060405180830381600087803b158015620014bb57600080fd5b505af1158015620014d0573d6000803e3d6000fd5b505050506001600760008473ffffffffffffffffffffffffffffffffffffffff1673ffffffffffffffffffffffffffffffffffffffff16815260200190815260200160002060006101000a81548160ff02191690831515021790555060096000815480929190600190039190505550600a60008154809291906001019190505550505b50565b6000600460008373ffffffffffffffffffffffffffffffffffffffff1673ffffffffffffffffffffffffffffffffffffffff16815260200190815260200160002060003373ffffffffffffffffffffffffffffffffffffffff1673ffffffffffffffffffffffffffffffffffffffff16815260200190815260200160002060009054906101000a900473ffffffffffffffffffffffffffffffffffffffff1690508073ffffffffffffffffffffffffffffffffffffffff166395ccdddb336040518263ffffffff1660e01b8152600401808273ffffffffffffffffffffffffffffffffffffffff1673ffffffffffffffffffffffffffffffffffffffff168152602001915050600060405180830381600087803b1580156200167757600080fd5b505af11580156200168c573d6000803e3d6000fd5b505050505050565b6000809054906101000a900473ffffffffffffffffffffffffffffffffffffffff1681565b6000600360008373ffffffffffffffffffffffffffffffffffffffff1673ffffffffffffffffffffffffffffffffffffffff16815260200190815260200160002060003373ffffffffffffffffffffffffffffffffffffffff1673ffffffffffffffffffffffffffffffffffffffff16815260200190815260200160002060009054906101000a900473ffffffffffffffffffffffffffffffffffffffff1690508073ffffffffffffffffffffffffffffffffffffffff16639b8a74f0336040518263ffffffff1660e01b8152600401808273ffffffffffffffffffffffffffffffffffffffff1673ffffffffffffffffffffffffffffffffffffffff168152602001915050600060405180830381600087803b158015620017da57600080fd5b505af1158015620017ef573d6000803e3d6000fd5b50505050600860008154809291906001900391905055505050565b60011515600760008473ffffffffffffffffffffffffffffffffffffffff1673ffffffffffffffffffffffffffffffffffffffff16815260200190815260200160002060009054906101000a900460ff1615151462001a9f576000600560008473ffffffffffffffffffffffffffffffffffffffff1673ffffffffffffffffffffffffffffffffffffffff16815260200190815260200160002060009054906101000a900473ffffffffffffffffffffffffffffffffffffffff1690508073ffffffffffffffffffffffffffffffffffffffff1663b1b9e78d8333856040518463ffffffff1660e01b8152600401808373ffffffffffffffffffffffffffffffffffffffff1673ffffffffffffffffffffffffffffffffffffffff168152602001828152602001925050506000604051808303818588803b1580156200194f57600080fd5b505af115801562001964573d6000803e3d6000fd5b505050505080600460008573ffffffffffffffffffffffffffffffffffffffff1673ffffffffffffffffffffffffffffffffffffffff16815260200190815260200160002060003373ffffffffffffffffffffffffffffffffffffffff1673ffffffffffffffffffffffffffffffffffffffff16815260200190815260200160002060006101000a81548173ffffffffffffffffffffffffffffffffffffffff021916908373ffffffffffffffffffffffffffffffffffffffff160217905550600260003373ffffffffffffffffffffffffffffffffffffffff1673ffffffffffffffffffffffffffffffffffffffff16815260200190815260200160002060008154809291906001019190505550600960008154809291906001019190505550600860008154809291906001900391905055505062001b0d565b6040517f08c379a000000000000000000000000000000000000000000000000000000000815260040180806020018281038252601b8152602001807f636f6e747261637420616c7265616479207465726d696e61746564000000000081525060200191505060405180910390fd5b5050565b60016020528060005260406000206000915090505481565b600a5481565b6000600760008373ffffffffffffffffffffffffffffffffffffffff1673ffffffffffffffffffffffffffffffffffffffff16815260200190815260200160002060009054906101000a900460ff161562001bf2576040517f08c379a000000000000000000000000000000000000000000000000000000000815260040180806020018281038252601e8152602001807f636f6e747261637420697320616c7265616479207465726d696e61746564000081525060200191505060405180910390fd5b60001515600760008473ffffffffffffffffffffffffffffffffffffffff1673ffffffffffffffffffffffffffffffffffffffff16815260200190815260200160002060009054906101000a900460ff161515141562001d38576000600560008473ffffffffffffffffffffffffffffffffffffffff1673ffffffffffffffffffffffffffffffffffffffff16815260200190815260200160002060009054906101000a900473ffffffffffffffffffffffffffffffffffffffff1690508073ffffffffffffffffffffffffffffffffffffffff1663b69ef8a86040518163ffffffff1660e01b815260040160206040518083038186803b15801562001cf757600080fd5b505afa15801562001d0c573d6000803e3d6000fd5b505050506040513d602081101562001d2357600080fd5b81019080805190602001909291905050509150505b919050565b6000600760008373ffffffffffffffffffffffffffffffffffffffff1673ffffffffffffffffffffffffffffffffffffffff16815260200190815260200160002060009054906101000a900460ff161562001e00576040517f08c379a000000000000000000000000000000000000000000000000000000000815260040180806020018281038252601e8152602001807f636f6e747261637420697320616c7265616479207465726d696e61746564000081525060200191505060405180910390fd5b60001515600760008473ffffffffffffffffffffffffffffffffffffffff1673ffffffffffffffffffffffffffffffffffffffff16815260200190815260200160002060009054906101000a900460ff161515141562001f46576000600560008473ffffffffffffffffffffffffffffffffffffffff1673ffffffffffffffffffffffffffffffffffffffff16815260200190815260200160002060009054906101000a900473ffffffffffffffffffffffffffffffffffffffff1690508073ffffffffffffffffffffffffffffffffffffffff1663f51f96dd6040518163ffffffff1660e01b815260040160206040518083038186803b15801562001f0557600080fd5b505afa15801562001f1a573d6000803e3d6000fd5b505050506040513d602081101562001f3157600080fd5b81019080805190602001909291905050509150505b919050565b60036020528160005260406000206020528060005260406000206000915091509054906101000a900473ffffffffffffffffffffffffffffffffffffffff1681565b60076020528060005260406000206000915054906101000a900460ff1681565b6000600760008373ffffffffffffffffffffffffffffffffffffffff1673ffffffffffffffffffffffffffffffffffffffff16815260200190815260200160002060009054906101000a900460ff161562002070576040517f08c379a000000000000000000000000000000000000000000000000000000000815260040180806020018281038252601e8152602001807f636f6e747261637420697320616c7265616479207465726d696e61746564000081525060200191505060405180910390fd5b60001515600760008473ffffffffffffffffffffffffffffffffffffffff1673ffffffffffffffffffffffffffffffffffffffff16815260200190815260200160002060009054906101000a900460ff1615151415620021b6576000600560008473ffffffffffffffffffffffffffffffffffffffff1673ffffffffffffffffffffffffffffffffffffffff16815260200190815260200160002060009054906101000a900473ffffffffffffffffffffffffffffffffffffffff1690508073ffffffffffffffffffffffffffffffffffffffff1663893d20e86040518163ffffffff1660e01b815260040160206040518083038186803b1580156200217557600080fd5b505afa1580156200218a573d6000803e3d6000fd5b505050506040513d6020811015620021a157600080fd5b81019080805190602001909291905050509150505b919050565b6000600360008373ffffffffffffffffffffffffffffffffffffffff1673ffffffffffffffffffffffffffffffffffffffff16815260200190815260200160002060003373ffffffffffffffffffffffffffffffffffffffff1673ffffffffffffffffffffffffffffffffffffffff16815260200190815260200160002060009054906101000a900473ffffffffffffffffffffffffffffffffffffffff1690508073ffffffffffffffffffffffffffffffffffffffff1663fa89401a336040518263ffffffff1660e01b8152600401808273ffffffffffffffffffffffffffffffffffffffff1673ffffffffffffffffffffffffffffffffffffffff168152602001915050600060405180830381600087803b158015620022dc57600080fd5b505af1158015620022f1573d6000803e3d6000fd5b5050505060096000815480929190600190039190505550600a600081548092919060010191905055505050565b612503806200232d8339019056fe60806040526040516125033803806125038339818101604052608081101561002657600080fd5b8101908080519060200190929190805190602001909291908051906020019092919080519060200190929190505050813410156100cb576040517f08c379a00000000000000000000000000000000000000000000000000000000081526004018080602001828103825260208152602001807f6e6f7420656e6f7567682066756e647320746f2070617920616420737061636581525060200191505060405180910390fd5b826000806101000a81548173ffffffffffffffffffffffffffffffffffffffff021916908373ffffffffffffffffffffffffffffffffffffffff16021790555083600260006101000a81548173ffffffffffffffffffffffffffffffffffffffff021916908373ffffffffffffffffffffffffffffffffffffffff1602179055508060038190555081600560008673ffffffffffffffffffffffffffffffffffffffff1673ffffffffffffffffffffffffffffffffffffffff168152602001908152602001600020819055506001600460006101000a81548160ff021916908360018111156101b657fe5b02179055507f5a0e8f8f6398bb98bb4b08f22ded7e69d248c7f1d66d164356e520a10246deab6040518080602001828103825260198152602001807f56656e646f722063726561746564206120436f6e74726163740000000000000081525060200191505060405180910390a1505050506122cd806102366000396000f3fe6080604052600436106100865760003560e01c80639b8a74f0116100595780639b8a74f0146101d5578063b1b9e78d14610226578063b69ef8a814610274578063f51f96dd1461029f578063fa89401a146102ca57610086565b806363b8817c1461008b57806376eea7bf146100dc578063893d20e81461012d57806395ccdddb14610184575b600080fd5b34801561009757600080fd5b506100da600480360360208110156100ae57600080fd5b81019080803573ffffffffffffffffffffffffffffffffffffffff16906020019092919050505061031b565b005b3480156100e857600080fd5b5061012b600480360360208110156100ff57600080fd5b81019080803573ffffffffffffffffffffffffffffffffffffffff1690602001909291905050506107b8565b005b34801561013957600080fd5b50610142610be1565b604051808273ffffffffffffffffffffffffffffffffffffffff1673ffffffffffffffffffffffffffffffffffffffff16815260200191505060405180910390f35b34801561019057600080fd5b506101d3600480360360208110156101a757600080fd5b81019080803573ffffffffffffffffffffffffffffffffffffffff169060200190929190505050610c0a565b005b3480156101e157600080fd5b50610224600480360360208110156101f857600080fd5b81019080803573ffffffffffffffffffffffffffffffffffffffff169060200190929190505050610f30565b005b6102726004803603604081101561023c57600080fd5b81019080803573ffffffffffffffffffffffffffffffffffffffff16906020019092919080359060200190929190505050611380565b005b34801561028057600080fd5b50610289611648565b6040518082815260200191505060405180910390f35b3480156102ab57600080fd5b506102b4611667565b6040518082815260200191505060405180910390f35b3480156102d657600080fd5b50610319600480360360208110156102ed57600080fd5b81019080803573ffffffffffffffffffffffffffffffffffffffff169060200190929190505050611671565b005b80600260009054906101000a900473ffffffffffffffffffffffffffffffffffffffff168073ffffffffffffffffffffffffffffffffffffffff168273ffffffffffffffffffffffffffffffffffffffff16146103c3576040517f08c379a00000000000000000000000000000000000000000000000000000000081526004018080602001828103825260228152602001806121316022913960400191505060405180910390fd5b6002600460019054906101000a900460ff1660048111156103e057fe5b8160048111156103ec57fe5b1461045f576040517f08c379a00000000000000000000000000000000000000000000000000000000081526004018080602001828103825260178152602001807f496e76616c69642061677265656d656e7420737461746500000000000000000081525060200191505060405180910390fd5b60006104e9600f6104db606460056000600260009054906101000a900473ffffffffffffffffffffffffffffffffffffffff1673ffffffffffffffffffffffffffffffffffffffff1673ffffffffffffffffffffffffffffffffffffffff16815260200190815260200160002054611c3890919063ffffffff16565b611c8290919063ffffffff16565b9050600061056160056000600160009054906101000a900473ffffffffffffffffffffffffffffffffffffffff1673ffffffffffffffffffffffffffffffffffffffff1673ffffffffffffffffffffffffffffffffffffffff1681526020019081526020016000205483611d0890919063ffffffff16565b9050610585813073ffffffffffffffffffffffffffffffffffffffff163111611d90565b6105da576040517f08c379a00000000000000000000000000000000000000000000000000000000081526004018080602001828103825260288152602001806121746028913960400191505060405180910390fd5b600260009054906101000a900473ffffffffffffffffffffffffffffffffffffffff1673ffffffffffffffffffffffffffffffffffffffff166108fc829081150290604051600060405180830381858888f19350505050158015610642573d6000803e3d6000fd5b5061066660003073ffffffffffffffffffffffffffffffffffffffff163111611d90565b6106bb576040517f08c379a000000000000000000000000000000000000000000000000000000000815260040180806020018281038252602781526020018061221e6027913960400191505060405180910390fd5b6000809054906101000a900473ffffffffffffffffffffffffffffffffffffffff1673ffffffffffffffffffffffffffffffffffffffff166108fc3073ffffffffffffffffffffffffffffffffffffffff16319081150290604051600060405180830381858888f19350505050158015610739573d6000803e3d6000fd5b5060048060016101000a81548160ff0219169083600481111561075857fe5b02179055507ff55724537bab7469e5f9d92dc53f2feac7a209ec49784e274046db0b14dc527360405180806020018281038252602981526020018061226f6029913960400191505060405180910390a16107b0611d9a565b505050505050565b806000809054906101000a900473ffffffffffffffffffffffffffffffffffffffff168073ffffffffffffffffffffffffffffffffffffffff168273ffffffffffffffffffffffffffffffffffffffff161461085f576040517f08c379a000000000000000000000000000000000000000000000000000000000815260040180806020018281038252602281526020018061210f6022913960400191505060405180910390fd5b6001600460019054906101000a900460ff16600481111561087c57fe5b81600481111561088857fe5b146108fb576040517f08c379a00000000000000000000000000000000000000000000000000000000081526004018080602001828103825260178152602001807f496e76616c69642061677265656d656e7420737461746500000000000000000081525060200191505060405180910390fd5b61097e60056000600160009054906101000a900473ffffffffffffffffffffffffffffffffffffffff1673ffffffffffffffffffffffffffffffffffffffff1673ffffffffffffffffffffffffffffffffffffffff168152602001908152602001600020543073ffffffffffffffffffffffffffffffffffffffff163111611d90565b6109f0576040517f08c379a000000000000000000000000000000000000000000000000000000000815260040180806020018281038252601f8152602001807f6e6f7420656e6f7567682066756e6420746f2070617920637573746f6d65720081525060200191505060405180910390fd5b600160009054906101000a900473ffffffffffffffffffffffffffffffffffffffff1673ffffffffffffffffffffffffffffffffffffffff166108fc60056000600160009054906101000a900473ffffffffffffffffffffffffffffffffffffffff1673ffffffffffffffffffffffffffffffffffffffff1673ffffffffffffffffffffffffffffffffffffffff168152602001908152602001600020549081150290604051600060405180830381858888f19350505050158015610ab9573d6000803e3d6000fd5b50610b3e60056000600260009054906101000a900473ffffffffffffffffffffffffffffffffffffffff1673ffffffffffffffffffffffffffffffffffffffff1673ffffffffffffffffffffffffffffffffffffffff168152602001908152602001600020543073ffffffffffffffffffffffffffffffffffffffff16311015611d90565b610bb0576040517f08c379a000000000000000000000000000000000000000000000000000000000815260040180806020018281038252601d8152602001807f6e6f7420656e6f7567682066756e647320746f20706179206f776e657200000081525060200191505060405180910390fd5b60048060016101000a81548160ff02191690836004811115610bce57fe5b0217905550610bdb611d9a565b50505050565b60008060009054906101000a900473ffffffffffffffffffffffffffffffffffffffff16905090565b80600160009054906101000a900473ffffffffffffffffffffffffffffffffffffffff168073ffffffffffffffffffffffffffffffffffffffff168273ffffffffffffffffffffffffffffffffffffffff1614610cb2576040517f08c379a00000000000000000000000000000000000000000000000000000000081526004018080602001828103825260258152602001806120ea6025913960400191505060405180910390fd5b6001600460019054906101000a900460ff166004811115610ccf57fe5b816004811115610cdb57fe5b14610d4e576040517f08c379a00000000000000000000000000000000000000000000000000000000081526004018080602001828103825260178152602001807f496e76616c69642061677265656d656e7420737461746500000000000000000081525060200191505060405180910390fd5b6000610dd8600f610dca606460056000600260009054906101000a900473ffffffffffffffffffffffffffffffffffffffff1673ffffffffffffffffffffffffffffffffffffffff1673ffffffffffffffffffffffffffffffffffffffff16815260200190815260200160002054611c3890919063ffffffff16565b611c8290919063ffffffff16565b9050610dfc813073ffffffffffffffffffffffffffffffffffffffff163111611d90565b610e51576040517f08c379a000000000000000000000000000000000000000000000000000000000815260040180806020018281038252603181526020018061219c6031913960400191505060405180910390fd5b600160009054906101000a900473ffffffffffffffffffffffffffffffffffffffff1673ffffffffffffffffffffffffffffffffffffffff166108fc829081150290604051600060405180830381858888f19350505050158015610eb9573d6000803e3d6000fd5b506002600460016101000a81548160ff02191690836004811115610ed957fe5b02179055507ff55724537bab7469e5f9d92dc53f2feac7a209ec49784e274046db0b14dc527360405180806020018281038252602b81526020018061209a602b913960400191505060405180910390a15050505050565b80600260009054906101000a900473ffffffffffffffffffffffffffffffffffffffff168073ffffffffffffffffffffffffffffffffffffffff168273ffffffffffffffffffffffffffffffffffffffff1614610fd8576040517f08c379a00000000000000000000000000000000000000000000000000000000081526004018080602001828103825260228152602001806121316022913960400191505060405180910390fd5b6000600460019054906101000a900460ff166004811115610ff557fe5b81600481111561100157fe5b14611074576040517f08c379a00000000000000000000000000000000000000000000000000000000081526004018080602001828103825260178152602001807f496e76616c69642061677265656d656e7420737461746500000000000000000081525060200191505060405180910390fd5b60006110fe60416110f0606460056000600260009054906101000a900473ffffffffffffffffffffffffffffffffffffffff1673ffffffffffffffffffffffffffffffffffffffff1673ffffffffffffffffffffffffffffffffffffffff16815260200190815260200160002054611c3890919063ffffffff16565b611c8290919063ffffffff16565b9050611122813073ffffffffffffffffffffffffffffffffffffffff163111611d90565b611177576040517f08c379a000000000000000000000000000000000000000000000000000000000815260040180806020018281038252602c8152602001806121cd602c913960400191505060405180910390fd5b600260009054906101000a900473ffffffffffffffffffffffffffffffffffffffff1673ffffffffffffffffffffffffffffffffffffffff166108fc829081150290604051600060405180830381858888f193505050501580156111df573d6000803e3d6000fd5b5061120360003073ffffffffffffffffffffffffffffffffffffffff163111611d90565b611258576040517f08c379a000000000000000000000000000000000000000000000000000000000815260040180806020018281038252602781526020018061221e6027913960400191505060405180910390fd5b6000809054906101000a900473ffffffffffffffffffffffffffffffffffffffff1673ffffffffffffffffffffffffffffffffffffffff166108fc3073ffffffffffffffffffffffffffffffffffffffff16319081150290604051600060405180830381858888f193505050501580156112d6573d6000803e3d6000fd5b506003600460016101000a81548160ff021916908360048111156112f657fe5b02179055507ff5985acde1acd93854c3f39bd9a1afaf04b718249e0e971c3fa3c41bfff4e7646040518080602001828103825260258152602001806120c56025913960400191505060405180910390a16000809054906101000a900473ffffffffffffffffffffffffffffffffffffffff1673ffffffffffffffffffffffffffffffffffffffff16ff5b81600260009054906101000a900473ffffffffffffffffffffffffffffffffffffffff168073ffffffffffffffffffffffffffffffffffffffff168273ffffffffffffffffffffffffffffffffffffffff161415611429576040517f08c379a00000000000000000000000000000000000000000000000000000000081526004018080602001828103825260268152602001806120746026913960400191505060405180910390fd5b60035483101561143a57600061143d565b60015b80611493576040517f08c379a00000000000000000000000000000000000000000000000000000000081526004018080602001828103825260258152602001806121f96025913960400191505060405180910390fd5b6000600460019054906101000a900460ff1660048111156114b057fe5b8160048111156114bc57fe5b1461152f576040517f08c379a00000000000000000000000000000000000000000000000000000000081526004018080602001828103825260178152602001807f496e76616c69642061677265656d656e7420737461746500000000000000000081525060200191505060405180910390fd5b85600160006101000a81548173ffffffffffffffffffffffffffffffffffffffff021916908373ffffffffffffffffffffffffffffffffffffffff16021790555034600560008873ffffffffffffffffffffffffffffffffffffffff1673ffffffffffffffffffffffffffffffffffffffff168152602001908152602001600020819055506001600460016101000a81548160ff021916908360048111156115d357fe5b02179055507f63eb1933534e0191a23d7b11ba7e48e1856f4d4e5f4e0c3e943964d2bce713d36040518080602001828103825260188152602001807f42696e64696e6720636f6e74726163742063726561746564000000000000000081525060200191505060405180910390a1505050505050565b60003073ffffffffffffffffffffffffffffffffffffffff1631905090565b6000600354905090565b80600260009054906101000a900473ffffffffffffffffffffffffffffffffffffffff168073ffffffffffffffffffffffffffffffffffffffff168273ffffffffffffffffffffffffffffffffffffffff1614611719576040517f08c379a00000000000000000000000000000000000000000000000000000000081526004018080602001828103825260228152602001806121316022913960400191505060405180910390fd5b6001600460019054906101000a900460ff16600481111561173657fe5b81600481111561174257fe5b146117b5576040517f08c379a00000000000000000000000000000000000000000000000000000000081526004018080602001828103825260178152602001807f496e76616c69642061677265656d656e7420737461746500000000000000000081525060200191505060405180910390fd5b60006118b260086118a4606461189660056000600260009054906101000a900473ffffffffffffffffffffffffffffffffffffffff1673ffffffffffffffffffffffffffffffffffffffff1673ffffffffffffffffffffffffffffffffffffffff1681526020019081526020016000205460056000600160009054906101000a900473ffffffffffffffffffffffffffffffffffffffff1673ffffffffffffffffffffffffffffffffffffffff1673ffffffffffffffffffffffffffffffffffffffff16815260200190815260200160002054611d0890919063ffffffff16565b611c3890919063ffffffff16565b611c8290919063ffffffff16565b9050600061193e6046611930606460056000600260009054906101000a900473ffffffffffffffffffffffffffffffffffffffff1673ffffffffffffffffffffffffffffffffffffffff1673ffffffffffffffffffffffffffffffffffffffff16815260200190815260200160002054611c3890919063ffffffff16565b611c8290919063ffffffff16565b905060006119ca60166119bc606460056000600260009054906101000a900473ffffffffffffffffffffffffffffffffffffffff1673ffffffffffffffffffffffffffffffffffffffff1673ffffffffffffffffffffffffffffffffffffffff16815260200190815260200160002054611c3890919063ffffffff16565b611c8290919063ffffffff16565b90506119ee833073ffffffffffffffffffffffffffffffffffffffff163111611d90565b611a43576040517f08c379a000000000000000000000000000000000000000000000000000000000815260040180806020018281038252602a815260200180612245602a913960400191505060405180910390fd5b600160009054906101000a900473ffffffffffffffffffffffffffffffffffffffff1673ffffffffffffffffffffffffffffffffffffffff166108fc849081150290604051600060405180830381858888f19350505050158015611aab573d6000803e3d6000fd5b50611ace823073ffffffffffffffffffffffffffffffffffffffff163111611d90565b611b23576040517f08c379a00000000000000000000000000000000000000000000000000000000081526004018080602001828103825260288152602001806121746028913960400191505060405180910390fd5b600260009054906101000a900473ffffffffffffffffffffffffffffffffffffffff1673ffffffffffffffffffffffffffffffffffffffff166108fc839081150290604051600060405180830381858888f19350505050158015611b8b573d6000803e3d6000fd5b50611baf813073ffffffffffffffffffffffffffffffffffffffff16311015611d90565b611c04576040517f08c379a000000000000000000000000000000000000000000000000000000000815260040180806020018281038252602781526020018061221e6027913960400191505060405180910390fd5b60048060016101000a81548160ff02191690836004811115611c2257fe5b0217905550611c2f611d9a565b50505050505050565b6000611c7a83836040518060400160405280601a81526020017f536166654d6174683a206469766973696f6e206279207a65726f000000000000815250611fad565b905092915050565b600080831415611c955760009050611d02565b6000828402905082848281611ca657fe5b0414611cfd576040517f08c379a00000000000000000000000000000000000000000000000000000000081526004018080602001828103825260218152602001806121536021913960400191505060405180910390fd5b809150505b92915050565b600080828401905083811015611d86576040517f08c379a000000000000000000000000000000000000000000000000000000000815260040180806020018281038252601b8152602001807f536166654d6174683a206164646974696f6e206f766572666c6f77000000000081525060200191505060405180910390fd5b8091505092915050565b6000819050919050565b60048060019054906101000a900460ff166004811115611db657fe5b816004811115611dc257fe5b14611e35576040517f08c379a00000000000000000000000000000000000000000000000000000000081526004018080602001828103825260178152602001807f496e76616c69642061677265656d656e7420737461746500000000000000000081525060200191505060405180910390fd5b600060056000600160009054906101000a900473ffffffffffffffffffffffffffffffffffffffff1673ffffffffffffffffffffffffffffffffffffffff1673ffffffffffffffffffffffffffffffffffffffff16815260200190815260200160002081905550600060056000600260009054906101000a900473ffffffffffffffffffffffffffffffffffffffff1673ffffffffffffffffffffffffffffffffffffffff1673ffffffffffffffffffffffffffffffffffffffff1681526020019081526020016000208190555060006003819055507fc2026cebaa9c03424daf16a697d1f5687c7af19543a500aa2ce309838e9d1cf360405180806020018281038252601b8152602001807f42696e64696e6720636f6e7472616374207465726d696e61746564000000000081525060200191505060405180910390a16000809054906101000a900473ffffffffffffffffffffffffffffffffffffffff1673ffffffffffffffffffffffffffffffffffffffff16ff5b60008083118290612059576040517f08c379a00000000000000000000000000000000000000000000000000000000081526004018080602001828103825283818151815260200191508051906020019080838360005b8381101561201e578082015181840152602081019050612003565b50505050905090810190601f16801561204b5780820380516001836020036101000a031916815260200191505b509250505060405180910390fd5b50600083858161206557fe5b04905080915050939250505056fe56656e646f722063616e6e6f7420627579206869732f686572206f776e207468696e67287329437573746f6d657220636f6e6669726d65642064656c6976657279206f6620676f6f642f7365727669636556656e646f722063616e63656c6c6564206e6f6e2d62696e64696e6720636f6e74726163744f6e6c7920637573746f6d65722063616e2063616c6c20746869732066756e6374696f6e206f6e6c79206f776e65722063616e2063616c6c20746869732066756e6374696f6e204f6e6c792076656e646f722063616e2063616c6c20746869732066756e6374696f6e536166654d6174683a206d756c7469706c69636174696f6e206f766572666c6f776e6f7420656e6f7567682066756e647320617661696c61626c6520746f207061792076656e646f726e6f7420656e6f7567682066756e647320617661696c61626c6520746f2070617920637573746f6d6572207265776172646e6f7420656e6f7567682066756e647320617661696c61626c6520746f2070726f6365737320726566756e64616d6f756e74206e6f7420656e6f75676820746f20636f7665722073616c6520636f7374736e6f7420656e6f7567682066756e647320617661696c61626c6520746f20706179206f776e65726e6f7420656e6f7567682066756e647320617661696c61626c6520746f2070617920637573746f6d6572436f6e7472616374207375636365737366756c6c7920636f6e636c756465642062792076656e646f72a2646970667358221220d155a475b5245b7230b202d9228aa9e7d5593cafcb2255d367aaee4f00fd09d664736f6c63430006040033a2646970667358221220d11554da6e4933160daf9314fb62549e47b28cdf699e77d7812ea809c5668ff464736f6c63430006040033",
  "source": "pragma solidity ^0.6.4;\r\nimport \"./Events.sol\";\r\nimport \"./Sale.sol\";\r\n\r\n\r\ncontract TradeStore is Events {\r\n    address payable public owner; //create a second in command address needed to  change  owners address \r\n                                 //decide to add it during TradeStore initiation or what.  \r\n    mapping(address => uint256) public vendorContractCount;\r\n    mapping(address => uint256) public customerContractCount;\r\n    mapping(address => mapping(address => Sale)) public contractToVendor;\r\n    mapping(address => mapping(address => Sale)) public contractToCustomer;\r\n    mapping(address => Sale) public availableTradeAgreement;\r\n    mapping(address => mapping(address => Sale)) public terminateSale;\r\n    mapping(address => bool) public terminated;\r\n    uint256 public totalSalesPending;\r\n    uint256 public totalSalesBinding;\r\n    uint256 public totalSalesDeclined;\r\n    uint256 public totalSalesSucceeded;\r\n\r\n    modifier onlyOwner() {\r\n        require(msg.sender == owner, \"only owner is authorized \");\r\n        _;\r\n    }\r\n\r\n    constructor() public payable {\r\n        owner = msg.sender;\r\n    }\r\n\r\n    function makeOffer(uint256 _adPrice, uint256 _salePrice) external payable {\r\n        Sale newSale = new Sale{value:_adPrice}(msg.sender, owner, _adPrice, _salePrice);\r\n        contractToVendor[address(newSale)][msg.sender] = newSale;\r\n        availableTradeAgreement[address(newSale)] = newSale;\r\n        terminateSale[address(newSale)][owner] = newSale;\r\n        vendorContractCount[msg.sender]++;\r\n        totalSalesPending++;\r\n        emit NewContract(address(newSale), \"new sale contract created\", msg.sender);\r\n    }\r\n\r\n    function acceptOffer(address _contract, uint256 _amt) external payable {\r\n        if(terminated[_contract] != true){\r\n                Sale agreement = availableTradeAgreement[_contract];\r\n                agreement.acceptOffer{value:_amt}(msg.sender, _amt);\r\n                contractToCustomer[_contract][msg.sender] = agreement;\r\n                customerContractCount[msg.sender]++;\r\n                totalSalesBinding++;\r\n                totalSalesPending--;\r\n        } else{\r\n            revert(\"contract already terminated\");\r\n        }\r\n    }\r\n\r\n    function cancelOffer(address _contract) external {\r\n        Sale agreement = contractToVendor[_contract][msg.sender];\r\n        agreement.cancelOffer(msg.sender);\r\n        totalSalesPending--;\r\n    }\r\n     function agreementConclude(address _contract) external {\r\n        Sale agreement = contractToCustomer[_contract][msg.sender];\r\n        agreement.agreementConcluded(msg.sender);\r\n    }\r\n\r\n    function refund(address _contract)external {\r\n        Sale agreement = contractToVendor[_contract][msg.sender];\r\n        agreement.refund(msg.sender);\r\n        totalSalesBinding--;\r\n        totalSalesDeclined++;\r\n    }\r\n\r\n    function getPaid(address _contract)external {\r\n        Sale agreement = contractToVendor[_contract][msg.sender];\r\n        agreement.getPaid(msg.sender);\r\n        totalSalesBinding--;\r\n        totalSalesSucceeded++;\r\n    }\r\n\r\n    function terminateAndRefund(address _contract)external onlyOwner {\r\n        if (terminated[_contract]) {\r\n            revert(\"contract already terminated\");\r\n        } else if (terminated[_contract] == false){\r\n            Sale agreement = terminateSale[_contract][msg.sender];\r\n            agreement.terminateAndRefund(msg.sender);\r\n            terminated[_contract] = true;\r\n            totalSalesBinding--;\r\n            totalSalesDeclined++;\r\n        }\r\n    }\r\n\r\n    function setOwner(address payable _owner) external onlyOwner {\r\n        owner = _owner;\r\n    }\r\n\r\n    function getOwner(address _contract) external view returns (address _owner) {\r\n       if(terminated[_contract]){\r\n                revert(\"contract is already terminated\");\r\n       } else if (terminated[_contract] == false) {\r\n               Sale agreement = availableTradeAgreement[_contract];\r\n                _owner = agreement.getOwner();\r\n       }\r\n    }\r\n\r\n    function contractBalance (address _contract) external view returns (uint256 _amt) {\r\n         if(terminated[_contract]){\r\n             revert(\"contract is already terminated\");\r\n       } else if (terminated[_contract] == false) {\r\n            Sale agreement = availableTradeAgreement[_contract];\r\n            _amt =  agreement.balance();\r\n       }\r\n    }\r\n\r\n    function getSalePrice (address _contract) public view returns (uint256 _amt) {\r\n          if(terminated[_contract]){\r\n               revert(\"contract is already terminated\");\r\n       } else if (terminated[_contract] == false) {\r\n             Sale agreement = availableTradeAgreement[_contract];\r\n            _amt = agreement.salePrice();\r\n       }\r\n    }\r\n}\r\n",
  "sourcePath": "C:\\Users\\user\\Desktop\\project_studio\\solidity\\projects\\tradeStore_Dapp\\client\\src\\contracts\\TradeStore.sol",
  "compiler": {
    "name": "solc",
    "version": "0.6.4+commit.1dca32f3.Emscripten.clang"
  },
  "schemaVersion": "3.0.23",
  "updatedAt": "2020-04-16T15:14:18.240Z",
  "networkType": "ethereum",
  "devdoc": {
    "methods": {}
  },
  "userdoc": {
    "methods": {}
  }
}